:1000000000000120153300001133000011330000FF
:1000100011330000113300001133000011330000D0
:1000200011330000113300001133000011330000C0
:1000300011330000113300001133000011330000B0
:1000400011330000497F000011330000113300001C
:1000500091780000B57F0000557F00006D7F0000A3
:100060004D7F0000113300001133000011330000F8
:100070001133000011330000113300001133000070
:100080001133000011330000113300001133000060
:100090001133000011330000113300001133000050
:1000A0001133000011330000113300001133000040
:1000B000B97F0000517F0000BD68000011330000CF
:1000C000F97F000011330000854A00001133000061
:1000D0001133000011330000113300001133000010
:1000E0001133000011330000113300001133000000
:1000F00011330000113300001133000010B5054C1E
:10010000237833B9044B13B10448AFF300800123C3
:10011000237010BDC00000200000000060AE000091
:1001200008B5034B1BB103490348AFF3008008BD7A
:1001300000000000C400002060AE0000154B002B42
:1001400008BF134B9D46A3F5803A00218B460F460E
:100150001348144A121A08F038FD0F4B002B00D038
:1001600098470E4B002B00D0984700200021040038
:100170000D000D48002802D00C48AFF3008008F0B5
:10018000F5FC2000290002F057FA08F0DBFC00BF64
:100190000000080000000120000000000000000036
:1001A000C00000201C1C0020000000000000000017
:1001B00037B50446684680E8060003C8251D85E873
:1001C00005002373069B2361BDF81C30A382002326
:1001D0002360084B1A6812B91C6004E00A461168D3
:1001E0000029FBD114609888013080B2988003B058
:1001F00030BD00BFD806002007B503790193054A3A
:100200000368009306CA02230830FFF7D1FF03B04A
:100210005DF804FB548E00000A4B40F2011210B549
:100220001A604FF0FF329A6001225A6008441A4661
:10023000814202D1D869C04310BD11F8014B9461CD
:10024000F6E700BF00C0014070B5134C2268A2F170
:100250007E63A3F58433B3F5605FE0B005460E46D8
:1002600017D2126BA2F17E63A3F58433B3F5605FFE
:100270000FD2536A69464FF4C0720020984730B9D4
:1002800023681B6B3246DB6A29466846984760B094
:1002900070BD4FF40170FAE72808E10F0F4A10B45F
:1002A0001468A4F17E62A2F58432B2F5605F0B4659
:1002B0000FD2246BA4F17E62A2F58432B2F5605FA6
:1002C00007D22469064A0146A44600205DF8044B83
:1002D00060474FF481705DF8044B70472808E10FC8
:1002E0002807002070B51C4D2A68A2F17E63A3F593
:1002F0008433B3F5605FE0B004D34FF4017420465B
:1003000060B070BD136B002BF7D05B6A4FF4C07206
:1003100069460020984704460028F0D140F20126A3
:100320002A68A2F17E63A3F58433B3F5605FE4D25B
:10033000126BA2F17E63A3F58433B3F5605FDCD268
:10034000936A002168469847B042E9D040F20323FF
:10035000984218BF0446D2E72808E10F154B02283F
:10036000D3F8803113D0032814D0012814BFDBB296
:10037000C3F307231B0323F47042B1B9BAB90E4982
:10038000CA6E22F470421343CB6601207047C3F358
:100390000743EFE71B0EEDE70749D1F8E02022F411
:1003A00070421343C1F8E030EFE7002AF4D0002098
:1003B000704700BFB081E00F00300E40304B1A6F25
:1003C000D96CC90702F0070242D5012A40D9132887
:1003D00051D9143813288CBF102308232849013B16
:1003E000CA6C180322F47F4240EA03231343CB6410
:1003F000244BCA6C1B88C2F303222833013202EB60
:10040000820003EB5303B3FBF0F3C86C013B072BF3
:1004100020F0EE6028BF072340F4801040EA036319
:10042000CB64194BB3F90030002B10DB2833500894
:1004300000EB420203EB5303B3FBF2F30A6D072B0D
:1004400028BF072322F0700242EA03130B657047AE
:10045000DB6CD90706D4012A04D809280BD90A383D
:100460000928B8E7064BDB6C13F00103B6D0012A6C
:1004700003D82728AFE70423B0E70023AEE700BF87
:1004800000300E40F6060020F806002042EA032362
:1004900040F2011293422BD0B3F5817F08D2012B99
:1004A0001DD030D3B3F5807F31D0002213461CE03D
:1004B00040F20122934222D006D8B3F5007FF4D156
:1004C000174BD3F870310DE0B3F5407F23D040F2E5
:1004D00001329342E9D1124BD3F878310BE0104B43
:1004E000D3F87431C3F30722DBB203600A607047AC
:1004F0000B4BD3F874311A0EC3F30743F5E7084BDF
:10050000D3F87831EEE7064BD3F86C31EAE7044BC9
:10051000D3F86C31EFE7024BD3F87031EBE700BF53
:10052000B081E00F044A1368002BFCD1034B5868DC
:10053000C0F30140704700BFC800C64300300E4002
:100540000E4B30B50E4C5B68C9B2002304EBC302FE
:1005500015798D4203D154F8335085420BD20133C3
:10056000052BF3D1032205494B6823F0407343EA7E
:1005700002634B6030BD5279F5E700BF00000E40CA
:10058000608D000038B5054C41F67133256C23644D
:10059000FFF7D6FF0DB10023236438BD00000E40E5
:1005A0000C4B984210D90C4B984210D902220123CF
:1005B0000A490B600A49D1F8003123F0807343EAFD
:1005C0000263C1F80031704700221346F0E70122B0
:1005D000FBE700BF0048E8010090D0034000C8439B
:1005E00000400E40094B30B5196C5C6C002223466C
:1005F00042EA0104220C82701A0A210AC2701A0C03
:100600001B0E047041700271437130BDB081E00F68
:10061000214BD3F8F82102401CD170B4D3F8FC511F
:10062000D3F8006203F5FC74641BA410022C12D0F2
:10063000032C29D0012C1AD0184A52682A6005F1DF
:100640000C026860C3F8FC21A96033680C33336086
:1006500070BC70477047114A1C1D52682A60686060
:1006600004221960C3F8FC41326070BC70470B4C27
:100670001A4664682C6042F8080B08205960C3F8D9
:10068000FC21306070BC7047044C6468A960C5E907
:100690000040C3F8FC31E7E7B4150020001000E08B
:1006A000837DDB0701D5808A7047D0E901239B1A3F
:1006B00044BF828A9B1898B270470000044B5A6D61
:1006C00022B95865A3F858100120704700207047E0
:1006D00078060020D0B50C4CE38C0A20584307F074
:1006E00095FF0646A08C0F4607F090FF0022074BAF
:1006F00007F0F6FF02460B463046394608F01AF975
:1007000008F000FA2083D0BD780600200000F43FF6
:10071000084A10B5146840F2E243584303FB014114
:10072000536800F5807001EB50011844116050606F
:1007300010BD00BF7806002070B500228AB01346B5
:10074000D91003F00704415C2141CC0741BF0AA93D
:100750008918013201F8283C0133252BF0D10E4DC8
:100760000023D91003F00704415C2141C90707D5D4
:10077000E91881F82A300133252BF2D10AB070BD77
:100780000AAE93FBF2F102FB11313144EC1811F87F
:10079000286C84F82A60EEE778060020024B986CFB
:1007A00080B28002704700BFB081E00F7FB50E4B72
:1007B00002466D4603F11006186859682C4603C4BA
:1007C0000833B3422546F7D1531E04A90F3211F85E
:1007D000014D13F8010F844204D19342F7D1012057
:1007E00004B070BD0020FBE7448C000070B51A4DCA
:1007F000286810BB194B1A4CE41A1A4B1C4424F4F9
:10080000FF6424F00704FFF7C9FF844214D2666B2B
:10081000A6B1FFF7C3FF864210D2FFF7BFFF06F174
:10082000400383420AD83046FFF7C0FF30B1F36976
:1008300033F0080302D02C60286870BD04F1FC0678
:100840003046FFF7B3FF20B1D4F8183133F0080376
:10085000F1D104F50064D6E73C010020100000202F
:10086000BC000020ABB60000BFF34F8F0549064B1C
:10087000CA6802F4E0621343CB60BFF34F8F00BF3E
:10088000FDE700BF00ED00E00400FA050A4B1A681E
:10089000A2F17E63A3F58433B3F5605F09D2126BD6
:1008A000A2F17E63A3F58433B3F5605F01D2D36B0D
:1008B000184740F2011070472808E10F0D4B10B4A3
:1008C0001C68A4F17E63A3F58433B3F5605F0BD29B
:1008D000246BA4F17E63A3F58433B3F5605F03D288
:1008E000A36B5DF8044B184740F201105DF8044B10
:1008F000704700BF2808E10F064B1A68A2F17E631B
:10090000A3F58433B3F5605F01D2536A1847002022
:10091000704700BF2808E10F114B196801F17043BF
:1009200003F5F813B3F5006F0CD20E4B1B68A3F15F
:100930007E62A2F58432B2F5605F03D209680A4A8A
:10094000914203D000230370836070471968074AFF
:100950009142F7D1012202709A6842609B69F3E7E5
:100960002800E10F2808E10FAD1007B007B0CD5EF9
:1009700010B50C4630B90448FFF7CEFF034B236097
:100980000423A380002010BD980100209C010020BA
:1009900010B508B3114B1A68918881421CD399880D
:1009A000814281BF0121126899809A6099889A6872
:1009B00000242AB904B19A604FF6FF71998009E0CA
:1009C000884204D00131126889B20124F1E70CB1E8
:1009D00098809A60104610BD0022FBE7E0060020D8
:1009E00037B50D461446FFF7D3FFD8B10369828AA5
:1009F00063B14FF6FE718A4208D100200090ADF835
:100A000004006946984738B103B030BD2B6022809E
:100A1000286848B92080F7E7009B2B60BDF80430B8
:100A20002380F5E70120EFE70020EDE737B50D461D
:100A30001446FFF7ADFF70B1036973B1818A4FF6B9
:100A4000FE72914209D10095ADF80440694601203B
:100A5000984703B030BD0120FBE70E20F9E7000006
:100A600037B50379124A03330446019300F1440376
:100A7000009306CA02231430FFF79AFB228A0192E0
:100A8000E268237A009204F12C0094E80600FFF754
:100A90008FFB237AA4F84500054684F84430227978
:100AA000216804F1470008F085F8284603B030BDFE
:100AB0004C8E000070B50E4C0E4B04F11002064631
:100AC0000D4692E80300183483E803001846FFF748
:100AD00093FB094B94E8030002221A7283E8030097
:100AE000DE601D821846BDE87040FFF7B9BF00BF49
:100AF000448C00004C150020C00400202DE9F0417A
:100B0000054616468846FFF7CBFDAB8A181A80B219
:100B1000864228BF064637465FB93EB1D5E9013265
:100B20009A4202BFAB7D43F00103AB753046BDE88E
:100B3000F081AB8A2C68A8681C44241AA3B2BB427B
:100B40008CBF3C46A4B22246414608F033F8AB685D
:100B50002968AA8A23440A44A0449342A7EB0404C8
:100B6000AB60A7B228BFA960D6E770B504461546AA
:100B70001E4611B3FFF794FDA38A181A80B201280C
:100B800029D9E37D63B1E368628A1A70120A07D03B
:100B90002068A18A013301448B4228BF0346F4E751
:100BA00000236382A368E360022204F1120120465D
:100BB000FFF7A4FFE37D0133E37532462946204663
:100BC000FFF79CFF638A03446382E37D13B9238AA2
:100BD0000344238270BD0020FCE72DE9F041164656
:100BE00005468846FFF75CFD864228BF0646B6B23A
:100BF00037464FB92EB1AB7DDA0744BF23F001036E
:100C0000AB753046BDE8F081AB8A2C6869681C443E
:100C1000641AA3B2BB428CBF3C46A4B222464046F3
:100C200007F0C8FF6B682968AA8A23440A44A044D5
:100C30009342A7EB04046B60A7B228BF6960D8E7B2
:100C400070B51E46038A04461546EBB9C27DDAB17B
:100C50000123013A0B70C27500F110010222FFF767
:100C6000BCFFE37D9BB1228AB24228BF32462946AF
:100C70002046FFF7B2FF238A1B1A2382E37D13B9B4
:100C8000638A1B1A638270BD00230B70EBE7638AD3
:100C90002382E8E770B50E46B0B9FFF7A7FD04461A
:100CA000FFF7A4FD60B1094D04F1FC0304F59E7447
:100CB000186859682A4603C20833A3421546F7D17B
:100CC000034B33600423B380002070BD400100203B
:100CD000600100202DE9F04385B08846694604464E
:100CE00081E80C000C9EBDF83470FFF751FE4FF602
:100CF000FE7905460DB1444505D94FF6FF742046EF
:100D000005B0BDE8F0832B7A9DF804209A421ED1ED
:100D10000099686807F061FFC8B9002EEFD02B6911
:100D2000AA8AA3B14A4509D10290ADF80C0002A9E4
:100D3000984760B9029BBDF80C2043B1974206D199
:100D40003A461946304607F048FF0028D7D001340C
:100D50002D68A4B2CEE70000F0B5354C85B0114641
:100D60004FF486701F461646FFF752FC236925464E
:100D70002BB94FF48370FFF74BFC05B0F0BD002F8B
:100D800008BF082E21D16A460221206802F0B6FD74
:100D9000636860615B7A23769DF80030DA1F534206
:100DA0005341627E63F30002029BE361BDF80230AF
:100DB0006276638304F118012369022098470122B7
:100DC0000021206802F0A2FDD7E7002F08BFB6F58A
:100DD000001F03D1002101209847CEE706F4C0523E
:100DE0000023134309D04FF480714FF48170FFF753
:100DF0000FFC236900210320EEE706F44072002374
:100E0000134308D001214FF48170FFF701FC2B69D7
:100E10000021FF20E0E706F020620023134319BF02
:100E2000012140F2011031464FF48370EDE700BF1D
:100E3000B81300207FB502238DF80C30064B5A8B77
:100E4000596918680332029201AA02F05BFD019809
:100E500007B05DF804FB00BFB813002008B50021FF
:100E60004FF48570FFF7D4FB044B00221A61186819
:100E700001220321BDE8084002F0E6BAB8130020C1
:100E800013B50D4B0D4C1B88ADF804300128ADF89F
:100E9000003004BF02238DF8043001A908BF0423E9
:100EA000206808BF8DF8003002F08AFC694620688F
:100EB00002F0A6FC02B010BD648C0000B813002044
:100EC00037B5124C437A606000220092D0E90021CD
:100ED000206802F09CFD238CDB050CD563680C4D6B
:100EE0001A7A2978914206D0012A06D0022A08D01F
:100EF00063681B7A2B7003B030BD206802F04DFD93
:100F0000F6E7206802F05CFDF2E700BFB8130020AE
:100F1000D50600207FB51A4C1948637A0133DBB23D
:100F2000272B88BF25236372FFF7CAFF257B627CCE
:100F3000144C154920684FF40073023202F0BEFCD5
:100F40006368124A5B7A05F001052846D65CFFF714
:100F500097FF42F2107300220293009201238DF852
:100F60000C30314602AB206802F072FA28B1FFF76C
:100F700075FFFFF7CFFF04B070BD054B2361FAE7A3
:100F8000DC000020B8130020EC000020208E0000C0
:100F90009517000038B50D4611462C68A41A224654
:100FA000014407F029FE2C6038BD00002DE9F04710
:100FB000DFF86C814F4CD8F800304F4EC51A4F48BF
:100FC0003560241A4E48044424F4FF6424F00704D6
:100FD000A542C14670D313445F19FFF7DFFBA0F5AC
:100FE0008050874268D8D8F800008418B4F5806F24
:100FF00003D9444B82221A705CE0DFF82081424F13
:10100000404407F0D7FDD7F800A0C9F80040BAF176
:10101000000F1DD1B4F5867F4CD33C4A08F1FC0388
:1010200008F5867853F8041B42F8041B4345F9D1B0
:101030003648FFF7BBFB10B9324B8422DBE71022A6
:10104000FF21334807F0C1FD324A05F1FC0313606C
:1010500004F0030830482C44A4EB08040440BAF11F
:10106000000F0AD12840C0F500612144FFF70EFCB3
:101070003C6048B1234B8522BDE7A24504D2A4EBD6
:101080000A010AF50060F1E7D9F800202349306829
:10109000A2EB0802FFF712FCD9F8002033682049C0
:1010A000A2EB0802044613441C483360FFF772FFAA
:1010B000002CDFD1BDE8F0871A4B5B68B3F1827F6B
:1010C000104B12D218780A4400268A4203D1002E0F
:1010D000F0D01870EEE711F8017BFF2FF5D0012654
:1010E000A54234BF87208320EFE7A54234BF872283
:1010F000832280E7BC000020300B0020100000207D
:10110000ABB600002D0B0020B41300209C0F002074
:10111000AC100020AC0F002000F8FFFFB00F002043
:10112000B0130020A4010020EFF3108072B67047C6
:101130000048704700F049020B4A536911699B004F
:1011400003F03C03C1F381110B438370136903F077
:101150003F0343709369D26903F0F003C2F30312B3
:1011600013430370704700BFD0FF0FE0054A064BE2
:101170001B68136F23F007031843044B106718888C
:10118000FFF71CB900300E408009C643F40600206A
:10119000EFF3108072B6704700B962B67047000076
:1011A00010B5034CA01DFFF7C7FA0023236010BD44
:1011B0007C0F002010B5094CB4F80710A079FFF798
:1011C000A7FAA368064AB4F80D10D184C3F30F231D
:1011D0009384FFF77FFA0023236010BD7C0F00206B
:1011E00078060020034B044A9979117500221A6091
:1011F000704700BF7C0F002078060020FFF7CCBFAF
:101200002DE9F0410D4F06460D4614460CB9BDE8D8
:10121000F081EFF3108872B623462A4631463846ED
:10122000FFF7A3FC03464046FFF7B6FF002BEDD0C7
:10123000E41AA4B21D440026E8E700BF600E0020B7
:1012400013B5002301F10804ADF80430ADF8060031
:1012500021461A46083151F8100C70B90BB1ADF89F
:10126000042004220DEB020101200834FFF7C8FF1F
:1012700054F8101C39B902B010BD51F80C3C1A4496
:1012800092B20123E6E734F80C2C0020EDE70000D1
:101290007FB500230130CDE90101CDE90433694672
:1012A000044B009304200392FFF7CAFF07B05DF8D8
:1012B00004FB00BF860100200E4A1368A3F17E6381
:1012C000A3F58433B3F5605F10B50ED2EFF3108051
:1012D00072B6094900240B780C70FFF75DFF3BB133
:1012E0001368BDE810401B6A18474FF4817010BDA9
:1012F0001846FCE72808E10F790F002001282DE9A6
:10130000F34740F030818B88012B40F02E810B6831
:101310001B7813BB974A984C1360984A1360984AFD
:101320001360984A1360984A1360984A1370984A59
:101330001360984A13602278022A01D1FFF7BCFF9C
:1013400001232370944B00241C70944B1C70944B0D
:101350001C70204602B0BDE8F087032B40F0F080FF
:101360008F4B854E1C78002C4AD13378002B00F02F
:10137000DB80864B1B78082B7AD17E4A1368904617
:101380008BB9884D2B68A3F17E63A3F58433B3F545
:10139000605F50D34FF4017041F20803984200F0AF
:1013A000C58080242CE013F003071ABFC7F104079F
:1013B000FFB2274603EB070ABAF5806F00F2BA8046
:1013C00079483A461844FF2107F0FFFB704B6B4AFF
:1013D000C8F800A015681A6815445544DFF8A8A19C
:1013E00025F4FF65DAF8000025F0070585429946E7
:1013F0000BD9291A00F50060FFF748FA18B18524C7
:1014000000233370A5E7CAF80050D8F80010D9F8C7
:101410000000FEF743FFD9F80030D8F80020554906
:1014200013440546DF1B6048C9F80070FFF7B2FDA2
:10143000002DA6D0E3E7FEF755FF0028ACD12A68BF
:101440000190A2F17E63A3F58433B3F5605F0BD204
:10145000126BA2F17E63A3F58433B3F5605F03D210
:101460009369012101A898474C4B01221A70C7E7E4
:10147000002B5DD0484B1B78002B92D0454F3B682A
:1014800043B9404B494918681022FFF717FA002862
:10149000B6D0B4E713F003021CBFC2F10402D2B20B
:1014A0009D18B5F5806F45D84148FF21184407F0D5
:1014B0008CFB404A404B324840493D609B1A404AB1
:1014C000134402680B409342804635D81544FFF719
:1014D00065F9A0F58050854230D83D68DFF8A890C6
:1014E0002A44D9F8000002EA0105854208D9291AE0
:1014F00000F50060FFF7CAF9002880D1C9F8005054
:101500003A682B49D8F80000FFF7D8F9D8F800302E
:101510003A682049054613442548C8F80030FFF7CB
:1015200039FD002DADD06AE7812469E7862467E79D
:10153000842465E7822463E7872461E783245FE7E7
:10154000042B14D11F4C13230221637020462170F9
:10155000FFF7B4F81C4A1D4B128905329A801C4AC9
:101560001A6062789A710024F3E60D24F1E60624ED
:10157000EFE600BF280B00202E0B0020AC1500204A
:10158000300B0020AC0F0020B4130020800100209D
:10159000340B0020B01300202C0B00208D01002004
:1015A0002D0B00202808E10F280700209C0F0020A9
:1015B000B00F002010000020BC00002000F8FFFF4A
:1015C000ABB60000900F0020780600207C0F0020B2
:1015D000911C00000E4A1368A3F17E63A3F58433C7
:1015E000B3F5605F10B50ED2EFF3108072B6094B01
:1015F000012419781C70FFF7CFFD39B91368BDE8D5
:101600001040DB6918474FF4817010BD0020FCE7E3
:101610002808E10F790F0020134A144C08B5937E77
:1016200043F040039376124B00221A70114B1B7843
:101630004FF000556BB1FFF7CDFF0F4B2B6001232F
:10164000A360236823F4E06343F480632360FFF71F
:101650000BF92B600123A360236823F4E06343F4B8
:1016600080632360FFF700F97806002000500E40E9
:10167000D40600208D01002002020FF010B5134C9B
:10168000A37E5B0621D4FFF7E9FB2168A38C40F21F
:10169000E24202FB0312226094F84F10A27A252046
:1016A0000A4492FBF0F100FB1122A272228901325E
:1016B000228162680A2101FB03236360238B5A1E87
:1016C000228313B90820FFF7A7FF10BD780600207A
:1016D0002DE9FF41294C40F601002189FEF798FFD2
:1016E000A37E13F0400242D143F0010303F0FD0357
:1016F00062F38203224AA376136823B12189928878
:10170000914200D19847A37A1E4F1F48234493F873
:101710002A306375FFF7D4FBD4E900547B681B4A79
:101720005B7A64082E1B12F803800120FFF7A8FBE8
:1017300064350096002625446A4601244146334616
:10174000386802958DF804608DF80C608DF80D40B6
:101750008DF80E6001F080FE22460546314638685D
:1017600002F0D4F835B1FFF789FFFFF7B1FF04B0FD
:10177000BDE8F081064B3B61F9E700BF7806002029
:101780007C0F0020B813002084060020208E00006B
:10179000F918000002282DE9F0411FD002D80128D5
:1017A00007D0FEE7032800F09C80FF2800F0998016
:1017B000F7E74D4C237B980707D5FFF74FFBFFF763
:1017C000A9FB237B6FF341032373237B990701D488
:1017D000DA0764D4BDE8F041FFF79CBB4B784C6856
:1017E000DB077ED5227802F00F07032F59D0052F93
:1017F00077D13E498B7B03F00103B3EBD21F04F199
:1018000008004CD10622083107F0E7F9804600288D
:1018100045D1FFF723FBFFF70DFB354D414606464B
:101820005C22284607F0D1F9AB7E2F8343F02003DA
:10183000AB76627E237E43EA0223AB84627F237F02
:1018400043EA0223EB8494F82330C3F3040385F8BE
:101850004F3094F82330C3F3421385F8503004F12D
:101860001E001B232B85FEF767FFD4F80E30E27CA9
:10187000EB60A37C2E6043EA0223227D607D43EA75
:1018800002432B61012795F84F30AB722F75E18A27
:101890003944FEF73DFFFFF71BFF164B1F70BDE8F5
:1018A000F081124DAB7B03F00103B3EBD21F04F1C7
:1018B0000800F4D1062205F1080107F08EF900288E
:1018C000EDD1094C286894F839204FF400730232A6
:1018D00004F1380101F0F2FF237B43F0020323738C
:1018E000DDE7FFF7BBFA75E7DC000020B813002046
:1018F00078060020D406002002282DE9F7430F4681
:101900000BD003D8012800F0B281FEE7032800F0D5
:10191000B681FF2800F0B381F7E748784E68BB4DE9
:1019200010F0010461D14FF0FF3140F60300FEF7E3
:101930006FFE2646AB7EB64C13F0200F12D0696DB9
:101940006FF34513AB76002900F09F80237895F85C
:101950005820627043F003032370A01C07F02AF99B
:1019600000236B65AB48DFF8D082FEF799FEAA7EB4
:101970002378003018BF012060F34102C2F3001148
:10198000AA7661F38203C2F3C00262F3C30360F379
:1019900004132370218840F60200FEF739FE6278B6
:1019A0009B49D8F8000002324FF40073D2B201F024
:1019B00085FFAB7E7C68D90709D56FF30003AB7652
:1019C00000236B60FFF736FA2860FEF783FE4EB106
:1019D000237803F00303022B00F031816DD8012B33
:1019E00000F02C8103B0BDE8F083318840F603009D
:1019F000FEF70EFE3378A97E96F80080C3F300133D
:101A000063F38201A976C8F3C003C1F300118B42CE
:101A100006D108F00303022B05D019D8012B31D0D1
:101A20000026344615E0A146767896B17A48848A35
:101A3000FEF736FE201A80B2B9F1000F04D002285A
:101A400086BF023880B2002086428CBF0024012469
:101A50002646AB7EC8F38008C3F3C002904507D08A
:101A600082F0010262F3C303DBB243F02003AB76E2
:101A7000002C3FF45FAFAB7E81F0010161F30413F2
:101A8000AB7657E74FF00009CEE795F8283061486C
:101A9000A21C0DF10701FFF7D3F8C0B258B19DF8B1
:101AA0000730002B0CBF012202222378607062F302
:101AB0000103237056E70122F7E7A378022B65D0D4
:101AC00011D8002B4DD0012B38D0544A127822B1B6
:101AD000162B7FD0182B00F08C8051480722027003
:101AE0004370022127E00C2B18D0142B56D0082B62
:101AF000EBD1B8F8201054F8035FC8B205EA000231
:101B0000474801F47F41044642EA0105092104F8EF
:101B1000011B0023C0F8015063600CE040484FF007
:101B2000FF3203700123437082700371022200238D
:101B3000C27043710621FEF7C1FD53E7617A237A33
:101B4000384A43EA012393801346374943F8061B7A
:101B500054F8031FC2F80610A2889A80A2799A71DD
:101B600040E7627B237B2F4943EA02238B800B46AD
:101B70002E4A43F8062B54F8032FC1F8062062685A
:101B80005A6022891A81A27A9A722BE72A89254BF8
:101B900005329A80264A1A60E278E0E7B4F8053008
:101BA000B4F803201E48DB08934228BF13462B8558
:101BB000152300216FF004046FF027020370072340
:101BC000817081714470C27003714471C27103727B
:101BD0000921B0E72279E3781148134003F00303A9
:101BE000022B18BF01231722027043708370032158
:101BF000A1E76279A1790B4B42EA01229A800D4A52
:101C00001A60D4F80320C3F80620EBE6780600201B
:101C1000B8170020600E0020480D0020780F00202B
:101C2000900F00207C0F0020A1110000B5110000D2
:101C3000911C0000E5110000B81300200026124896
:101C4000818AFEF72DFD081AA51C80B2647826B1A2
:101C5000022886BF023880B20020A3B283423FF63A
:101C6000C1AE2A4631460848FEF77FFFBAE6074B69
:101C70009B7E9A073FF5B6AE5B073FF5B3AEFFF725
:101C8000FDFCFFF725FDADE6480D0020780600209D
:101C900008B5024B9879FFF7BFFC00BF7C0F00200E
:101CA0002DE9F04F01288BB040F048818A88002A46
:101CB00000F04681A44D95F800B0BBF1000F00F094
:101CC0004181A24B1C7898465CB9A14806788246AF
:101CD0003EB9A04E30681718B7F5806F05D9822439
:101CE0001C7020460BB0BDE8F08FDFF888920968C1
:101CF000484406F05FFFBBF1020F37603DD0032F71
:101D0000EFD9954F3846FEF707FE3B78D9F800200B
:101D1000012B924B62D19A4262D1BB68DB0368D53A
:101D200002232B70FFF756FC8D4B1A68A2F17E63DD
:101D3000A3F58433B3F5605F0BD2126BA2F17E631F
:101D4000A3F58433B3F5605F03D2936803A9002041
:101D500098470398834B844A186020F4FF6323F06C
:101D600007034FF400611360FEF790FD88BBFEF798
:101D70003DFD40BB2B78022BB3D17C497C4F0878CA
:101D80003A68336810F0F70F894640F0AC80754927
:101D90000D681D4403F0030B1544734B0193A5EB31
:101DA0000B0525F4FF65186825F00705854223D942
:101DB000291A00F50060FEF769FD019BD8B1852462
:101DC00088F800408DE74FF40061FEF75FFD0028C2
:101DD000D0D0852388F800301C4682E79A4208D08C
:101DE000842388F8003098F80030002B3FF479AF56
:101DF000F0E78623F5E71D6031683868A1EB0B0139
:101E0000FEF74CFA32683B685249A2EB0B020546DA
:101E1000134458483B60FFF7BDF8002DCFD199F827
:101E20000030002B7FF45DAF3B687F2B7FF759AF0D
:101E300002A903A8FEF708FA10B9039B89F800303D
:101E400099F8003013F0F70F3FF44BAF444D3B6867
:101E50002968A1F17E62A2F58432B2F5605FAED24C
:101E6000096BA1F17E62A2F58432B2F5605FA6D261
:101E7000D1F80C903F4A00210846C84700289ED15F
:101E80003B683360384B3C4F18603C4B7B602A68A2
:101E9000A2F17E63A3F58433B3F5605F8FD2936ABA
:101EA00037484FF400719847002888D12968336873
:101EB000A1F17E62A2F58432B2F5605F3BD2CD6AB9
:101EC0002C4A2F483946A8470546326821492948F7
:101ED000FFF760F840F203239D421ED040F2012339
:101EE0009D4226D1FDE61A443A601D4A1168A1F1CF
:101EF0007E62A2F58432B2F5605F12D2CD6A1D4ACD
:101F00001D491F48A8470546326812491948FFF77E
:101F100041F840F203239D4206D101238AF80030A4
:101F2000DFE640F20225EFE740F201239D423FF455
:101F300076AF802444E740F20225C6E70024D0E6CD
:101F40000D24CEE68124CCE62E0B00202D0B0020A4
:101F50002C0B0020280B0020A4010020EB17A60367
:101F60002808E10FAC150020B413002080010020E8
:101F7000340B002028070020380B0020AD0F000094
:101F8000480B00202DE9F34106460F4690460728EE
:101F900000F29180DFE800F004BF2621BA8F8F0E97
:101FA0004FF400754FF4807408230920002F00F0CF
:101FB000988086E001A8FFF7BFF89DF80530012B57
:101FC00006D94FF400454FF480440E230F20EDE76F
:101FD0009DF80430022BF4D8FEE7012402250023EB
:101FE0002046E3E7002979D04D4A536A13F0300FB9
:101FF00064D14C4BDB6B536AD90705D5536A23F088
:10200000300343F010035362042402230320464D9F
:10201000434A2B4414669B001A68002AFCD0B8F18E
:10202000000F48D00544AD002B68002BFCD0022ED9
:1020300041D1002F3FD03A4B5A6A12F0010F1A4695
:1020400041D04FF48062C3F8A82020225A665A6A11
:1020500012F0300F0CBF4FF440024FF40002D3F8DF
:10206000901032EA0101FAD1520201D5D3F8A03022
:102070002B4E012200210220D6F89C70FFF782FF30
:10208000D6F89030726A294B22F0300242F01002EA
:102090007262C7F30A07316BFA0903320F2A03EAA7
:1020A000010328BF0F223B4343EA027333633466C4
:1020B0002B68002BFCD002B0BDE8F0810424022381
:1020C00003200027A3E7536AD2F8903003F44003BB
:1020D000B3F5400FF8D1D2F8A030C9E708250223A4
:1020E00003200F4A0121156601FA03F3D2F890107C
:1020F0001942FBD1B8F1000FDDD00123084A03FAE1
:1021000000F0D2F890300342FBD1D4E72025102410
:10211000042305204AE7802540240623072045E7BD
:1021200000400E4000300E408004F21000F8FF0F17
:1021300000F00F000138072848D8DFE800F0040F4E
:102140001947232D4735244BD3F8943003F0070368
:10215000023B052B3CD8214AD05C70471E4BD3F87C
:10216000803003F00703013B042B33D81C4AF3E70C
:10217000194BD3F8843003F00703013B042B29D813
:10218000184AE9E7144BD3F8883003F00703013B02
:10219000042B1FD8144ADFE70F4B1B6F13F0010FFE
:1021A00014BF0920072070470B4BD3F85C3103F0B4
:1021B0003003202B06D0302B06D0102B0CBF07206D
:1021C00001207047042070470820704700207047A6
:1021D000052070470120704700400E40728C0000BF
:1021E000788C00007D8C0000788C0000FEE70000F9
:1021F000044B054A9A60D3F8882042F47002C3F871
:102200008820704700ED00E0000000000B4BD3F881
:10221000942002F00702022A04D001D3042A0AD92A
:10222000074800E00748D3F80031C3F30423013323
:10223000B0FBF3F070474FF40040F4E700400E406D
:10224000C0EA210100F0490210B50E4CD4F800217B
:1022500008B9FFF7DBFFD4F80031FFF7D7FF0446DA
:10226000FEF760F968B1084B40221A6119B1074ABC
:102270001368002BFCD120460021BDE81040FEF77A
:1022800081B910BD00400E4000300E40C800C6436A
:1022900008B5FFF7BBFF044BD3F80831C3F308239D
:1022A0000133B0FBF3F008BD00400E40FFF7AEBFB6
:1022B0001128F8B505460C4611D104290FD100218B
:1022C0006648664EFFF7C0FF05F00F05013D072D7C
:1022D00066D8DFE805F0130661655F866591002624
:1022E000F2E75F4D013C0C2C5AD8DFE804F0785A35
:1022F000615959685959595759597100023C0A2C6A
:102300004ED8DFE804F0423F33394D4D4D4D4D0678
:1023100045000320052401221146FFF733FE514DED
:102320004E482F6C41F671332B640021FEF708F9FB
:102330000FB100232B641EB14B4A1368002BFCD154
:102340004A4B5C67FFF7B2FFFEF72AF9FFF7A0FFE1
:102350000446FEF7E7F801462046FEF713F9FEB9FA
:1023600030460121BDE8F840FFF76EBF4048FEF758
:1023700017F902200446CEE73D48FEF711F9012483
:102380000320C8E701200324C5E700200424C2E796
:102390000724C4E7374DA5E7374DA3E704232B6097
:1023A000F8BD012211460020FFF7ECFD0223F6E7FD
:1023B000012211461046FFF7E5FD0123EFE7FFF785
:1023C00067FFFEF7EDF82D4B01221A600323E6E7C5
:1023D000012211460720FFF7D5FD0523DFE7002383
:1023E000DDE7072C04D0092CDAD1204B012201E0D3
:1023F0001E4B00221A67D3E7013C072CD0D801A35B
:1024000053F824F057240000A1230000A12300006A
:1024100049240000A1230000A12300003B24000068
:102420002524000003221149D1F85C3123F0300348
:1024300043EA0213C1F85C31B2E7012211460420DD
:10244000FFF7A0FD0122EEE7012211460220FFF76F
:1024500099FD0222E7E70022E5E700BF00F049020C
:1024600080400E4000000E40C800C64300400E40B1
:102470000148E80188400E4084400E400816C843D9
:1024800038B5C0F30323013B04460D46092B1AD887
:10249000DFE803F031211A19052427192A2E174BDA
:1024A0000022C4F3043442B11548D0F84411C907DE
:1024B00003D4D0F840110A42FBD103F1047304EBBA
:1024C000C3039B001D6038BDFFF7F0FEFEF768F800
:1024D00000220C4BE5E700220B4BE2E701220B4BFD
:1024E000DFE710220A4BDCE74FF48032094BD8E7D4
:1024F0000022094BD5E70022014BD2E7B0400E4045
:1025000000400E40B8400E40C0400E40E0400E403B
:10251000E8400E40F0400E4050410E402DE9F84F8B
:10252000404E414D96F800A0814688461746BAF1C4
:10253000000F39D1FEF732F93C4CA0F580502060F5
:10254000FEF72CF9A0F50060606001213848FFF724
:1025500097FF216808200431FDF75EFE23681B68A1
:10256000834208BF2368616808BFD3F804B001F153
:1025700004014FF008000CBF4FF0010AD346FDF7ED
:102580004BFE63681B68834205D163685B685B45EB
:1025900006D8002305E0BAF1000FFAD1FF2300E0CE
:1025A00001232B700123337095F900305A1C28D079
:1025B0001E4ADFF880A052F823600C3635464FF6ED
:1025C000FF7BC5F30A030833B3F5006F19D2AB885C
:1025D0005B4516D0A879291D0430FDF71DFE2B6838
:1025E000EC888342E4B202D1AB884B450CD0033473
:1025F00004F4FE740834254486EA050313EA0A0F3E
:10260000DFD0002038700AE03B78A342F9D322469D
:1026100005F10801404606F0CDFA3C700120BDE806
:10262000F88F00BFB015002010000020EC0600203D
:1026300000650A0000F8FFFF2DE98048A74B5B68A2
:10264000ADB013F4806F24AF40F000814FF0005321
:1026500000221A603846FEF75FF9FEF7C7F8054614
:10266000002840F0FC809E4B01225A641A6842F414
:1026700080721A603846FEF75FFD9DF89130012B9D
:1026800003D89DF89030022B09D9964B4FF418725D
:102690001A60954A5A60954A5A66954ADA66954B89
:1026A000954E02229A639A6B02F00F02022A40F0C2
:1026B0003781DA6C22F0405222F0010242F001022E
:1026C000DA64D3F8E02042F44072C3F8E020DA6E16
:1026D00042F08072DA66894B186800B10420FEF778
:1026E00045FD874B834DC8221A80864BA0221A8055
:1026F000854B0F2000241880FDF760FE834BAB65EF
:10270000CDE91C4424947C60D6F86831C3F30722D9
:10271000DBB226921E93EB6CC3F3017A224653463A
:1027200039461CA8FDF7B2FED5F8E030C3F3012905
:1027300022464B4625A91DA8FDF7A8FEDDF898C046
:102740001E9A1C9D2498DDF87480ACEB02014FF4B6
:1027500016735943B1FBF3F32146259CD2184FF46D
:10276000167BA0EB050328BF01210BFB03F3B3FB92
:10277000FBF3ED18A4EB08032CBF4FF0010E4FF054
:10278000000E0BFB03F3B3FBFBF318EB03082CBFAA
:10279000012300239445C0F0C380002940F0C0808D
:1027A0004445C0F0BD80002B40F0BA80A842C0F084
:1027B000B780BEF1000F40F0B3804E4CE36D23F4C0
:1027C000FE4323F0020343EA0223E3655046FDF78C
:1027D000C5FD002800F0A48001214846FDF7BEFD9C
:1027E000002800F09D80636E454538BF4546E72DC3
:1027F00023F4FF7328BFE72523F0010343EA4503D1
:102800006366E36B43F48063E3634AF6E853606B0B
:102810006363214623469A6FD507FCD41B6C3C4A60
:1028200013F0030378D0012313608B6FDC07FCD413
:102830000B6C23F003030B642E498B6F13F0010321
:10284000FBD10128136008BF4B6366E04FF00053D3
:102850001A68022A7FF4FAAE00221A6003E79DF894
:102860009030012B32D1446BFEF7B4FE269B5E07FD
:1028700015D5FDF7BBFFFEF73FF80446FEF71CFD3C
:10288000002C3FF4F0AEFDF7B1FF0446FDF7AEFFBC
:10289000204B986023689D4663689847E3E684B1BF
:1028A000FDF77CFF84420CD2FDF778FF04F1400372
:1028B000834206D8636923B12046FDF777FF0028DD
:1028C000D7D105F1FC00FDF771FFD6E7FC30FDF72D
:1028D0006DFF00283FF4C7AED5E700BF00500E40A3
:1028E00000000E408C420E409A6F05001801000453
:1028F0000084320800300E40B081E00F8009C643EA
:10290000F6060020F8060020F4060020372110B754
:10291000B40AC64300ED00E01360C54B01221A6003
:10292000C44C1120FFF704FC012200210220FFF714
:1029300029FB636A23F001036362BF4B00251D601E
:10294000A36A23F0070343F00603A362BB4BE362D1
:10295000226BBB4B02F07F6213432363B94B63636B
:1029600004211120FFF7A4FCB74BB8481B68636A29
:10297000012143F04058FFF767FCFDF7D3FD014606
:10298000B248FDF7FFFDB148FDF70AFE01221146EE
:102990000220FFF7F7FAC4F82480D4F8C83043F0D7
:1029A0000103C4F8C830B36AA94E2CAA0424B36545
:1029B00008A902F8984D35200895FFF7AFFD0623CA
:1029C0008DF81730089B8DF8164013F4803FA14D09
:1029D0000AAC00F05682B36D8DF82830B36D8DF8D7
:1029E0002930B36D8DF82A30B36D8DF82B30B36D6F
:1029F0008DF82C30B36D63F03F038DF82D309DF8CA
:102A00002E3043F001038DF82E306C60924B934AC8
:102A10009A6000264FF48071C3E900221E8259613A
:102A20008F4A904BDFF88C829A60C3E9002259618B
:102A30002022314638461E8206F0C7F8FC220823C1
:102A40008DF89320884A8DF8913025928DF8A13029
:102A500040F20172F823ADF89A208DF8A330834A32
:102A6000834B27924FF00109384629938DF89890AF
:102A700000F066FC7F48804B036031467F4B43602B
:102A800000F0CCFC68A3D3E90023C8F80000CDE92E
:102A900000234FF0FF334FF0FF3200F0B5FE02226B
:102AA0004FF0FF31D8F80000754C00F0B7FE754BC1
:102AB0002493394603F50033D8F800002696259371
:102AC00000F014FD2146D8F80000267000F0D2FE78
:102AD000464630B12146D8F8000084F8009000F056
:102AE000C9FE3068DFF8D0A100F044FF2178B5F9C5
:102AF0000020306800F034FC0146306800F0AAFE87
:102B00006C68002C40F0D7815046FDF76BFDB37B1D
:102B100064F30003B3735C4B5C4CDFF8A0815C4D45
:102B20004FF0200983F80193562283F80493002183
:102B300083F8069304F10A0083F8079383F805935A
:102B400083F8089383F81D9306F03FF85148524BE1
:102B50004FF49072C4E90003328425234F4A637214
:102B600001231370237200232CAAC8F800301B2302
:102B70002B801E2302F89B3D14A93620FFF7CEFCC4
:102B80002CAA394602F89C9D3920FFF7C7FC80BB70
:102B9000434B9DF8152018681B7924903B71002A3F
:102BA00000F092811B2A28BF1B22531D8DF8143080
:102BB00014A9531C0DF195008DF8933005F0FAFF20
:102BC0001CA8FDF70FFD374A9DF814301288FA5201
:102BD0002CA99A1C51FA82F2002102F8201C1C98A0
:102BE000BDF8741042F81F0C093322F81B1C8DF835
:102BF00014302CAA202302F89D3D1CA93A20FFF78F
:102C00008DFC48B9284B1A889B788DF872300323C5
:102C1000ADF870208DF81330244B254800224FF07A
:102C20000209C3E900224BE0081B200A0000000053
:102C30009407C64300400E40A004C843200005008E
:102C400007450BD047A0020000300E4000F04902BB
:102C50000050084090010020600E0020780E0020F7
:102C6000600D0020480D0020908C0000828C000038
:102C7000D48C0000E8130020590D0000DC13002064
:102C8000140000203C00940000E100E0DC00002083
:102C900082010020D6BE898E55555500780F002040
:102CA000888D0000988D00009B8D0000D8060020C4
:102CB0006C150020B8130020C0130020B4030020BE
:102CC000AD4B036080F80490FDF796FAAB48AC4B2F
:102CD000036080F8049010230372FDF7C1FEA94839
:102CE000A94B0360A94B80F80490C36080F808905A
:102CF000A0F81090CDE900394B4690E8060014305A
:102D0000FDF756FA9DF81510002900F0EE8014A882
:102D1000FDF7D0FE9E489F4B03604FF0100980F8EE
:102D20000490FDF769FA9C489C4A9D4B03604FF65E
:102D3000FE7B0823C260A0F810B080F804900372F4
:102D40000393FDF78DFE9748974A02600C220272AA
:102D5000964AC260A0F810B080F80490FDF780FE9B
:102D60009348944A039B02604FF0020B924A80F80A
:102D70000490C260038280F808B0FDF771FE8F48AE
:102D80008F4B03608F4BC36080F804900123038254
:102D900080F808B0FDF764FE8B488C4B03608C4BC9
:102DA000C3604FF6FE73038280F8049080F808B089
:102DB000FDF756FE8748884B0360884BC3604FF68B
:102DC000FE73038280F8049080F808B0FDF748FE97
:102DD000834B844A1A604FF6FF729A809DF8142044
:102DE000202A05D8931D637439467F4805F0E2FE1A
:102DF0009DF81320202A06D8931D84F839301CA989
:102E00007A4805F0D7FEFEF729F8237BB27B43F022
:102E100001032373237C02F0010203F0F00362F349
:102E200086132374637C0BB906236374704BBAF862
:102E30000410B068C4F81200998094F83830042166
:102E400061F3030362F3861384F8383094F8393061
:102E500013B9062384F83930664BB068BAF80420F9
:102E6000C4F83A009A80FEF755F8634C634B1B7820
:102E7000002B7BD1624A136923F00403136130BF36
:102E8000F4E70DF1170221462C20FFF747FB00283D
:102E90003FF4BCAD0DF1160207A93C20FFF73EFB45
:102EA0009DF82E3020B19DF81C2062F30003AAE5A6
:102EB00060F30003A7E52068B060A288A3798AF8D0
:102EC0000630AAF8042026E60E238DF814300A23D3
:102ED0008DF893304B4B1A68CDF895205A681B7AC1
:102EE000CDF899208DF89D306AE6092145480FE715
:102EF000EFF3108672B600231A460DF1190142480D
:102F0000FDF79EFE3046FEF747F99DF8193013B1E4
:102F10000023C8F80030D8F80020EFF3108672B60E
:102F2000C2F501739BB222440DF119013648FDF739
:102F300087FE03463046FEF72FF9D8F80000184404
:102F40000328C8F8000011D9B4F8009009F104036F
:102F500098420BD307D8608804284FF0000755D05B
:102F6000062800F0C3810023C8F800302648FDF78A
:102F700097FB0028BCD17DE79F8D0000180500203D
:102F8000A28D0000FC060020A58D0000668C0000CC
:102F90008C150020A88D000070050020FD12000097
:102FA000B98D0000C8050020CA8D0000A11C0000DA
:102FB00010040020DB8D0000188D0000200600208A
:102FC000EC8D00001F8E000068040020FD8D0000C5
:102FD00071090000B80300200E8E0000950C00005F
:102FE000E0060020D8060020F40000201C0100208C
:102FF000EE00002016010020B0010020D4060020C1
:1030000000ED00E08E8D0000480D002022796F80D9
:1030100009F1FF33082A9BB200F0DF801BD8042A95
:10302000B74E39D0062A4ED0022A1AD1022B40F0D0
:103030005981B4F805700022B7F5007F28BF4FF41E
:1030400000770323114602203370A6F80170FEF7C3
:103050001FF92F8087E7102A00F0F48003D80A2A8E
:1030600070D0062294E0122A00F09B80522AF8D1F8
:10307000B4F80500FDF78CFC00283FF474AF037B27
:103080005B077FF570AFA9F1030292B29D49B4F8D6
:103090000500FDF7CBFC66E7042B79D1B4F8057089
:1030A000B8B2FDF775FC58B1027A41687780022A00
:1030B00014BF0223012305203070737003205FE0EA
:1030C0006F800A2264E0DFF840B2B4F80500B4F87B
:1030D0000710CDF840B04FF00203A9F107028DF8B8
:1030E000443092B20BF102030093019210AB0CCB6F
:1030F000FDF7F0FD4FF6FF7A5045814604D1636835
:10310000C3F30F236B80DCE7CDE900774FF00203B8
:103110008DF83430CDF830B001300CAB0CCB5146CB
:1031200080B2FDF7D7FD50451CBF00F1FF3080B2E3
:1031300007233370A6F80190A6F803000022114679
:1031400004201DE0022B40F0CD80B4F80500FDF70F
:103150001FFC00283DD0037B990714D52B882CAA8F
:10316000013B22F88C3D10A9B4F80500FDF738FCAE
:10317000024648B9624BBDF824200B211970109902
:10318000FEF786F8EFE602226368C3F30F236B8035
:103190005B4B20796988587001261E7059801A711E
:1031A000CCE7B4F80500FDF7F3FB90B1037B1A07F9
:1031B00011D5A9F1030292B25249B4F80500FDF706
:1031C00035FC02460028DFD14D4B13211970014612
:1031D000D6E70122D8E70322D6E7A9F1050B1FFAAB
:1031E0008BFBBBF1020F02D0BBF1100F7CD1464B21
:1031F000B4F80500B4F8071010930023CDE90033AC
:103200008DF844B010AB0CCBFDF764FD4FF6FF73A7
:10321000984206463FF473AF2B882CAA043B22F851
:10322000963D09A9FDF7DCFB024608B16E80AFE7C9
:10323000334BBDF81A205E8009211970911C59701A
:1032400009993BE7A9F1050B1FFA8BFBBBF1020FB4
:1032500002D0BBF1100F47D10027B4F80500B4F835
:103260000710DFF8A4A0CDF840A0CDE900775FFA01
:103270008BFB8DF844B010AB0CCBFDF72BFD4FF65C
:10328000FF79484506463FF43AAFCDE90077CDF8DF
:1032900038A08DF83CB001300EAB0CCB494680B263
:1032A000FDF718FD2B882CAA4845A3F10603074615
:1032B00022F8963D18BF00F1FF3709A9304618BF24
:1032C000BFB2FDF78DFB02460028AFD10C4BBDF815
:1032D0001A205E8011211970111D59709F80099963
:1032E00005204DE7042253E7024651E7074B1093B0
:1032F00010A90223CDE912771193FDF7A1FF32E661
:1033000086010020B7010020B90100201100002033
:10331000FEE7000008B5FEF76BFF064B0649074ABB
:103320008B4201D3FCF70AFF52F8040F43F8040B59
:10333000F6E700BF10000020BC00002068AE0000CF
:1033400038B5044600F0A6FA0FCC044D0FC594E83A
:103350000F0085E80F00002038BD00BFB81800201E
:1033600047F6FF739A4270B552D0022952D82A4BC1
:1033700013F8310001281D464FEAC1010CD10B445E
:10338000D878013800B220B1596831F91010914253
:10339000F7DC0130C0B270BD0B4458680028FAD089
:1033A000B0F90040944204DBB0F902409442B8BF47
:1033B0001446294428224978A4F1C80393FBF2F368
:1033C0005B424A1E1BB29342A8BF13464FF47A7663
:1033D00000EBC3050133EA88AD681BB214FB02524F
:1033E00022EAE2728B4202F5FA72B2FBF6F204DADA
:1033F00000EBC305AD889542EAD200EBC30333F876
:10340000040C904228BF1046002808BF0120C1E7E5
:10341000FF20C0E70020BEE7B818002038B5084BF1
:1034200004460D46186000F03BF82946204600F09F
:1034300027F8044B021C18BF01221A7038BD00BFC8
:10344000D8180020DC1800200846114600F03CB8CF
:1034500000B10C3002F0BCBC00B10C3000F0E2B99D
:103460007047431E012B03D9031F58425841704730
:103470000120704708B501F02BFE0128FBD108BDE3
:1034800038B504460D46002100F0E2F929462046F1
:1034900002F004FB00280CBF2046002038BD0000CD
:1034A00010B5044601F0DCFD3CB1054A236C002B4D
:1034B00008BF1346034A136010BD636BFFDE00BFF5
:1034C000613400001C00002010B50C4601F0EAFD3C
:1034D0001CB1BDE81040FFF7CDBF10BD00B10C30EE
:1034E00001F060BF00B10C3001F074BF00B10C30CE
:1034F00002F03CBB836A2DE9F74F0446884613B1BE
:10350000C3888B4246D0D4F82490B9F1000F45D03F
:10351000D9F80830002B41D0D9F80C30002B3DD021
:103520000026B24637464FF0180B47F6FF73D9F81E
:103530000C20524502D80FBB01202CE0D9F80850CE
:103540000BFB0A55EA89424513D82A8A424510D313
:10355000B5F912209A420FD094F864100193A4F1A7
:103560000C00FFF7FDFE019B0646E278B2422F46B3
:1035700004D90AF1010ADAE7FF26F6E704F170033D
:103580003A464146204601F0D6FFA4F80680A762DD
:1035900084F86D60002003B0BDE8F08F0320FAE7E7
:1035A0002DE9F74F4A4D4B4F04468A4690469B46BD
:1035B00002F024FD2E8802F03FFD009578B1002333
:1035C0003B6002F031FDA36A3A6893420CD15BB1D3
:1035D000564509D10025284603B0BDE8F08FB8F163
:1035E000000FF0D03860EEE701F072FD012804D042
:1035F000012001F057FDFFF73DFF374801900368B8
:10360000D4E90912002B5BD08B4245D138680028E1
:1036100042D0904240D1B6EB0A064FF0000918BFE5
:1036200001264D46E07894F86D10814228BF01468E
:103630005A46204601F03EFFBDB9019B626A1A60FE
:10364000A26A3A60B8F1000F03D116B9B9F1000FC0
:10365000C0D0009BB8F1000F14BF41464946204638
:10366000C3F800A001F098FF0546B8F1000F02D1A1
:10367000B9F1000FAFD0B5FA85F03321400900F061
:1036800061F95946204602F07BF9144BA16A1B6888
:10369000A4F10C0098479EE71D688DB1086885422B
:1036A0000ED13968126811B1096891420BD059687E
:1036B000204602F059F94FF0010905460026B1E70E
:1036C00012680968F4E700264FF001093546A9E7BA
:1036D000E0180020E8180020E41800201C0000205A
:1036E000F8B505460E46FDF71FFD3146074628464C
:1036F000FFF700FF044630B903460246314628462C
:10370000FFF74EFF04463846FDF746FD2046F8BD5C
:10371000F8B50F1C18BF01270D4606461F21384675
:1037200000F010F90024284600F09AF938461F21CD
:103730007562B46200F006F9E86823464FF6FF713F
:103740001827DAB282420BD30C460B4A00231360CF
:103750000A4A214630461360FFF7C2FF2046F8BDF3
:10376000AC6807FB0242D4898C4202D2002CECD018
:1037700021460133E5E700BFE4180020E8180020E7
:10378000C088704738B50A78054610460C46FFF7E2
:1037900068FE88B149780846FFF763FE60B10A43C6
:1037A000520709D401F094FC430707D42146284668
:1037B000BDE8384001F03CBE012038BD0220FCE7E6
:1037C00000B10C30FFF7DEBF38B5054608780C466F
:1037D000FFF747FE80B14A781046FFF742FE58B126
:1037E000042A09D001F074FC830707D42146284637
:1037F000BDE8384001F02ABE012038BD0220FCE7B8
:1038000000B10C30FFF7E0BF30B4DDE9024500B194
:103810000C30CDE9024530BC01F0D2BB00B10C3018
:1038200001F012BD70B504460D46164601F050FC7D
:1038300001280BD129462046FFF752FF38B93246FE
:1038400029462046BDE8704001F072BC022070BDE0
:1038500002F0FABB38B5044600200D4600F0FEF831
:1038600034B104F10C002946BDE8384001F041BEF6
:103870002046F8E738B5044648880D4600F0EEF8D3
:1038800034B104F10C002946BDE8384001F0EEBD2A
:103890002046F8E700F0E3B838B505460C46FDF7DA
:1038A00043FC69692B690C4023432B61FDF774FCD1
:1038B00000200CB9002138BD2021FCE700B10C30FC
:1038C00001F0ABBF00B10C3001F0C1BF07B502AAD7
:1038D0004FF4007322F8023D0749FFF7F3FFBDF8EC
:1038E0000630B3F5007F05D1022808BF002003B0E1
:1038F0005DF804FB0120FAE7EC18002008461146A9
:1039000001F0BCBE00B10C3001F072BF38B51546F5
:1039100058B100F10C0411B1204601F0AFFF35B1F0
:103920002046BDE8384001F0F3BF0446F3E738BD58
:10393000024B1960024B1860FEE700BF2000002018
:103940002400002008B528B9034B1960034B186800
:10395000FFF7EEFF08BD00BF20000020D8180020B0
:1039600010B5044602F0C0FB20460321BDE810401C
:1039700001F082BB00B10C30FFF7F2BF10B5437805
:10398000044643B101F0A4FB012804D12046BDE860
:10399000104002F095BB022010BD00B10C30FFF7C3
:1039A000EDBF10B54378044643B101F091FB012807
:1039B00004D12046BDE8104002F06EBB022010BDCD
:1039C00000B10C30FFF7EDBF70B51E4643780546D9
:1039D0001446D3B191FAA1F1080A01F045FDE307BD
:1039E00003D5284602F089FB68B1AA20214602F0DF
:1039F0008BFB9DF81020442082F00102314602F03A
:103A0000A5FB002070BD5520F0E70220FAE710B4B6
:103A10009DF8044001940C305DF8044BFFF7D4BFCF
:103A2000431C08D0044AD2F83C311B0C1B0480B262
:103A30000343C2F83C3170470040084010B50446CB
:103A40000846FFF7EDFFA36A33B15B6923B14A1C57
:103A500008BF6FF001011960002010BD704770476A
:103A6000044B5868431C14BFC0F3807001203121FF
:103A7000FFF768BFB081E00F38B50D46044600F08F
:103A8000FBFEAC4042F2107164094C436423B0FB6E
:103A9000F3F0B4FBF0F038BD034B1A6802609B886A
:103AA00083800020704700BF2E0000200B4B5B88F6
:103AB000B3F5E16F95BFC8235A237822502298426C
:103AC0008CBF172310230B70054B1B7823B190423A
:103AD00094BF002001207047184670472E00002038
:103AE0002C00002037B51E4B1B78032B044634D026
:103AF0000DF10701FFF7DAFF1E2C8CBF19491A4997
:103B00009DF807204FF001030B608CBF01240024B7
:103B1000164950B1164B4DF601751D60120203F1A6
:103B2000007342F440421A608A810A7C22F001024A
:103B3000024322F0020242EA4402D3B20D4A0B745D
:103B4000127852B923F0040343EA800323F00803F8
:103B50008A89CA8143EAC4030B7403B030BD00BF35
:103B60002E0000200841084608410844D81F0021C3
:103B700004410844EE1A00200A4B0B4AD3F888315E
:103B8000DB4303F4FE1343F40053B3FA83F3C3F1AE
:103B9000FF2303F57F03F233C3EB4313013B1370A1
:103BA000704700BF00400E4036000020044B002844
:103BB0001B780CBF042000201844C0B2704700BF1F
:103BC0003600002030B51F234FF0FF34B0FBF3F375
:103BD0005D1CC3EB4313AC40C01AE443C0B2E4B273
:103BE00001301460086030BD2DE9F3411646404AAB
:103BF000404C1268404F14403A78012A05468846E6
:103C00001AD144EA006488F80000002333607B88FE
:103C1000B3F5E16F8CBF5A23C82324F47F549D422F
:103C200024F008049ABF200A00F47F5043F6C870BD
:103C3000204302B0BDE8F081304A1278904228BF9C
:103C40001546002B14BF042300232B440B70002DBA
:103C50002FD12B4B33606A46284601A9FFF7B2FFEC
:103C6000009A284B01981B7898F800C044EA8234E7
:103C700044F47F5444F0080444EA0064FBB1224950
:103C80003878224BB2FA82F2C2F11F02022818BF22
:103C90000B46511C17D09B5CD8B2316821F07F4392
:103CA0003360BCF1000F10D143F0306343F00403E4
:103CB000ACE74FF03063013D3360EDB2CBE7FF205E
:103CC0004FF0FF32E9E7FF20E7E7013203D0421E61
:103CD000D2B2FD2A06D921F07F4323F0040343F03A
:103CE0007F4393E743F0040343EA00638EE700BF9A
:103CF000D81F00213F00C0E02E0000203600002029
:103D00000400000BEF1A0020B883E00FB083E00F2F
:103D1000F7B50446C820FFF7E5FE284B284D1B7871
:103D2000032B01D0FF2C03D1FF20287003B0F0BD7E
:103D3000012B28D1072C204628BF072001284FF04F
:103D4000000301AA0DF1030138BF0120FFF74CFF6A
:103D500006461C4B1C4C019AC3F8582126609DF85E
:103D600003002870FFF7BEFE019A130203F4E0631C
:103D700043EA1263154A238112780AB966606381A7
:103D80009DF80300D2E78BB9042C11D81F461846C2
:103D9000201A01AA0DF10301C0B2FFF725FF4FF46D
:103DA0008003064647B10A4A1360D2E70023EDE7D5
:103DB00001231F460420EBE7064AF5E72E0000200A
:103DC0002D00002000400840D81F0021EE1A0020DE
:103DD000084108460841084408B500F033FF0D4A81
:103DE00068B1D2F8003123F47F115B0803F4FE13AD
:103DF0000B43C2F800314FF00073D36108BDD2F815
:103E0000183123F47F115B0803F4FE130B43C2F84F
:103E10001831F0E7004008407047000008B500F096
:103E200011FF4FF4001330B1044A1360044B4FF0FC
:103E300000621A6008BD034AF7E700BF004108446A
:103E40002040084418410844014B1868704700BFDF
:103E5000F01A002070B505460E46C0B201F00F0101
:103E6000FFF70AFEC6F303110446C5F30720FFF768
:103E700003FEC6F303210444C5F30740FFF7FCFD2E
:103E8000204470BD434B1B682DE9F047D0F8F45037
:103E9000DFF82081404F414E03F4E073A3F5C07278
:103EA000002D08BF01258146504250413C4A11680F
:103EB000A9423C4910D10C7884420DD199F864C0D4
:103EC00098F80040A44507D199F804C03C78A4456F
:103ED00002D1B088BDE8F087B3F5C07F15600870E7
:103EE00054D099F86430022B47D12F4B1B78002B0C
:103EF00014BFC82496240F212046FFF7BDFDB5FA54
:103F000085F3B0FA80F29B1A002BC4BFC3F10F0AED
:103F1000D840264BD8BF4FF00F0A85424FEA0440E5
:103F2000C3F8BC0003F1806303F1B80340F6FF72ED
:103F300038BF0AF1FF3A1A6003F100734FEA0A2111
:103F40001960FFF787FFB08000F096FC04FA0AF4CE
:103F50004FF4FA735C4341F66A03B0FBF3F0144B81
:103F6000B4FBF0F40A2044431C6099F8643088F8EC
:103F7000003099F804303B70ABE7012B08D00A4BB6
:103F80001B78002B14BFF024B424B4E70024B2E75C
:103F90003224B0E718600840340000202E000020D2
:103FA00028000020EC1A0020EF1A002000600840D2
:103FB000F01A002035000020FF280BD00D4B0E4AD0
:103FC0001A600304000503F4E02300F0F8701843BE
:103FD0000A4B1860FF290BD0064B40F2F7121A600B
:103FE0000B0103F4F87301F007011943034B196047
:103FF000704700BF504108440000F7015041084697
:1040000008B50D4B186800B10C3000F00BFE092804
:1040100010D80A4B01281B5C05D1094B1B78012BDA
:1040200014BF0423442303F00F011809BDE808401E
:10403000FFF7C2BFFA23F6E7D81800205C8E000015
:104040002E00002070B5054600F0E4FB142200218C
:104050003448354C354E04F0B8FD2A78344B022AEA
:10406000D3F888312BD113F4001F37D12B6823608C
:10407000AB88A380C8202B4DFFF734FDFF232A68AF
:1040800033702C4B13402278022A2DD12A4A4FF448
:10409000EE41116002F100724FF48A41116043F069
:1040A0008043012142F8041C2B60244B03221A6038
:1040B000FFF7A6FF224B01221A70002013E0012A0D
:1040C00002D113F4400FD0E742B91E4A526AD243DC
:1040D00002F0010203F480031343C6E703232370B5
:1040E000FF233370012070BD012A17481749184A71
:1040F0004FF0070409D104600620086015491160DB
:1041000043F003034FF44041CCE70460052008600E
:10411000C0211160104A43F08043812143F0040321
:104120001160C1E7D81F00212E0000202D000020C3
:1041300000400E402800C0A02441084458410844D3
:10414000ED1A0020B081E00F0C4108440C410846F4
:1041500008410844C1004000084108462DE9F84FD5
:104160002F4F304B3B6000F087FB4FF4FA734FF456
:104170007A76DFF8C880B0FBF6F56B434FEA032A86
:104180004FEA136B1AEB08004FF000094FF00003E1
:10419000254A4BEB090103F067FFA0F58073044645
:1041A000BB6218B92B21FFF7CDFB012406FB04F2FB
:1041B000002756084FEA0528B8193B4648F1000188
:1041C00003F052FF194B1960194B4FEA04688146FE
:1041D0008A461860240A25B928462B21FFF7B2FB2E
:1041E00001254FF47A73A8FB036703FB04776C087F
:1041F000301947F100012A46002303F035FF0D4B2B
:10420000074A19600C4B19F1020618604AF10007C1
:10421000B30843EA8773013B1363BDE8F88F00BF1F
:10422000005008400011010040420F00001B002018
:10423000FC1A0020F81A0020F41A002020A1070020
:10424000044B4FF00052C3F880211A60024B012248
:104250005A60704700E100E000500840824210B50B
:10426000A3EB0101A2EB000404D2064B1B6B01334C
:104270001C440139002201F0030342EA04001946FC
:1042800010BD00BF00500840054B0201134401223D
:104290001A604FF4807303FA00F0024B58667047BF
:1042A00000510844005008401030034B00011858DA
:1042B00000F00100704700BF00500840103001F4CA
:1042C00060010001024B41F003011950704700BF2B
:1042D0000050084038B5FCF75BFF094A094B9D695F
:1042E0001478094A1268E4B20AB19D690134FCF7F6
:1042F00085FF002204F0030342EA0500194638BD99
:10430000041B002000500840880B0A4308B52220F7
:1043100000F0D6F9024B4FF480225A6008BD00BF6E
:10432000005008400A4B2DE930481C68094B1D68B5
:104330004443A5FB00BC04EB8174002105FB01CCC8
:104340001BF100424CF10003E018BDE8308800BFCB
:10435000F81A0020F41A002008B5FFF7BBFFBDE8EB
:104360000840FFF7DFBF10B50446FFF7B3FF8442F4
:1043700002D9003041F1FF31002201F0030342EA8B
:1043800004001946BDE81040FFF7CCBF104B11499F
:104390001B68096B2DE9304820F040424FF0004483
:1043A0000025E2FB03450C4B1B6803FB02528A42CB
:1043B00014464FEA907304D901310133541A03F0C3
:1043C00003034FF0000B4BEA04001946BDE83088A8
:1043D000FC1A002000500840001B00202DE9F74F78
:1043E000154606468B46FCF79FFE07463046FFF70C
:1043F0004BFF022D04D13846FCF7CEFE012014E01D
:10440000FFF768FF81460191FFF78CFF012D04BF84
:104410000BF1010300EB030BA0EB0B00B0F1804F9D
:1044200006D23846FCF7B8FE002003B0BDE8F08F96
:104430004549DFF828C10C6FC96E06F1090224F066
:10444000E00401EA0C0C1002E404120621F0E00181
:1044500042F4803240F00100E40CC90484420CBFF5
:1044600004240024C90C944508BF44F00204884287
:1044700008BF44F0010414F0010A18BF334A58463B
:1044800018BFC2F800B0FFF781FF022E08BF304A04
:104490000B4608BFC2F800B0804602460199484664
:1044A000FFF7DCFE2B48C9B2815581B1BAF1000F8C
:1044B00003D0294B41F61F721A60A30742BF264B57
:1044C000264A1A60610742BF1F4B00221A671E4B23
:1044D00003EB06121121C2F80C8106F11002120141
:1044E000A8EB090899509A69D96DA2EB0909C8454A
:1044F00081D84FF48072B24011427FF47CAF815D6D
:1045000009B11A6677E71DB93046FFF7BDFE88E7A7
:104510001A66BAF1000F08D00F4B114941F61F720D
:1045200040F201101A6008601A60A20706D50A4B13
:104530000B490A4A0B481A6008601A60630742BFB9
:10454000094B01229A6056E7005008400C1C0020DD
:10455000101C0020141C00206C50084400001F1F79
:104560006C500846000001010040084038B5044680
:104570001546FFF789FE04F10903054A1B0243F0C3
:104580000103136720462A46BDE83840FFF726BFDF
:104590000050084038B504461546FFF775FE04F193
:1045A0000903054A1B0243F00113D36620462A463D
:1045B000BDE83840FFF712BF0050084038B5044648
:1045C0001546FFF761FE0948C36E23F0F85323F444
:1045D000F81304F1090243F4803343EA0263C3662B
:1045E0002A462046BDE83840FFF7F8BE0050084094
:1045F00038B50446FFF7B0FE0546FFF7ADFE401B99
:10460000A042FAD338BD00004FF0804310B1024AF7
:1046100013607047014AFBE7944008469440084401
:1046200038B5214B08221A60054601211F48FDF7C5
:1046300027FF1F4B1D701F4B00225A677DB31E4C76
:10464000636813B300F018F9626800EB5203B3FB20
:10465000F2F3013B1B0243F0F8032278022A16D042
:10466000032A18D0012A1DD143F00203072213495F
:104670004FF6FF70086001F1007128460B600D4B8A
:104680005A67FFF7C1FF002038BDF823E5E743F084
:1046900001030522EBE743F005030122E7E72A4681
:1046A000F823E4E70022E2E7C8400E4600350A009E
:1046B000051B002000000840081B00207C00084467
:1046C000044BD3F89430002BBCBF034BC3F88000DD
:1046D000704700BF00400840000008404FF00063F2
:1046E00010B1024A13607047014AFBE79440084644
:1046F0009440084408B58A0001464FF0045004F085
:1047000059FABDE8084000F0FBBB0000C0F30062AE
:10471000034B33F8123080B240EA0340704700BFC9
:10472000668E000007B501A8FCF706FD154B164A7A
:10473000C3F8442148F2E672C3F838214FF4086206
:10474000C3F83421114AC3F8A020114A4AF63F4168
:10475000916002F580424FF0C07191620022C3F86F
:10476000FC200C4AC3F89C2003F18063A3F6DC73A1
:104770007F221A6003F1007323221A6003B05DF8F0
:1047800004FB00BF00400840C0E653517A27000FE9
:1047900000300840806D630330B50A4B0A480B4C6B
:1047A0000B491A6842B102EA0005A54204BF5D68E0
:1047B000156008338B42F4D1064BD3F83C21064BED
:1047C0001A6030BD0080E00F0000FFFF00000840CD
:1047D000B081E00F004008403C000020094B01225E
:1047E0001A60094B5A6812F0706FFBD14FF00452F7
:1047F000DA670122C3F88020044A1A66044B1B685A
:10480000184700BF0C40084600400840B01F002178
:1048100038000020034BFD22C3F8C8200122C3F852
:10482000CC20704700400E4008B5FFF7F3FFFFF7BC
:10483000B3FFFFF777FF0C4B03221A600B4B4FF4CB
:10484000C012C3F8942003F1C063943301221A60AC
:1048500000F050FB064B4FF460721A60054A4FF0AF
:1048600040731360936108BDD8600846004008405B
:104870000C400846F840084608B5FDF7C7FC044B55
:10488000D3F81031C3F308230133B0FBF3F008BDB4
:1048900000400E40F8B5044618B1012521684B1CB4
:1048A00000D1F8BD0846C1F30746FFF72FFF012EE0
:1048B00003460CD9B600A1192246031B9F1852F8D3
:1048C000040F38608A42F9D104363444E6E7090F10
:1048D000606808340729E1D8DFE801F00A0408110C
:1048E0000C0F1417C04303F1806301E01A685040B5
:1048F0001860D3E7FFF77CFED0E705FA00F003F17C
:10490000C063F5E705FA00F0EDE71A6830EA020245
:10491000FBD1C3E7044B5868C0F303600238012899
:104920008CBF0020012070470040084008B5FFF709
:10493000A3FF064A126D034690B228B1C2F30742A4
:10494000DB085343B3FBF0F008BD00BF0060084034
:1049500010B50446FFF7EAFF104BD3F830211204DC
:104960000F4A126C02F4C05248BF4008B2F5805F93
:104970000ABF1B6BC4F30113C3F34163022B05D0C1
:10498000032B09D0012B00D1400810BDC4F3C4246F
:104990000134B0FBF4F0F8E78008F6E70060084067
:1049A0000000084000F03003202B10B512D1C0F3F6
:1049B00002441CB1C0F3C423B3FBF4F410F4C01FD1
:1049C00018BF64006408032C28BF0424FFF7C0FF4D
:1049D000604310BDC0F38213012B01D0042B01D121
:1049E0000224F3E70124F1E72DE9F041144FDFF849
:1049F00058800646FCF798FB0246FFF78BFFBB6822
:104A00009B09C3F309049B0548BF44EA0804054613
:104A1000FFF780FF24B20028104608BF0025FCF7EE
:104A2000BBFB14F5007F05D10DB1002EE2D120466D
:104A3000BDE8F081034B002D08BF1C46F7E700BF1F
:104A40000070084000FEFFFF00FCFFFF024B012248
:104A500018619A60704700BF00200840084B10B5ED
:104A6000D3F8702118B902F00F0010BD2246596822
:104A7000D3F87041A242F9D1C1F303630370F2E7A6
:104A800000400840024B1B6803B11847704700BF45
:104A90001C1B00201A4A1B4B2DE9F04105461068EB
:104AA000194A9C6B1268194E00FB04241A6B184BB0
:104AB00030681B68D202174A4CBFE418E41A164B40
:104AC000B4FBF3F313445F78144BFC40B4FBF3F3F3
:104AD0001A440C6092F8018020B92B21FEF732FFB6
:104AE00001233360326804EB5203B3FBF2F3013B62
:104AF00043EA073343EA88232B60BDE8F08100BF17
:104B0000201B002000300840281B0020400000200F
:104B1000241B00206A8E000040BE4025401B5F130E
:104B200038B505460C46FCF703FB024618B92B21A5
:104B3000FEF708FF0122B5FBF2F3642002FB1355D8
:104B40006843B0FBF2F000B9013B5A08013A013367
:104B50005B08072A03F1FF330D4903D8072B01D85F
:104B60009AB993B9002008700A48097806250560AB
:104B70000948007821B118B10849022008600020D6
:104B80001B0243EA0213236038BD0120EBE700BF9C
:104B90002D1B0020944008442E1B00209440084602
:104BA00038B5154D2B780C4623B9144B1B6D03F00B
:104BB0003F032B70124BD3F894305B061AD5114B80
:104BC000B0FBF3F040F24D534343A3F546430C3B97
:104BD000584300F5C91000F5556018B92B21FEF7B0
:104BE000B1FE01202A78084B5343B3FBF0F020605C
:104BF000002038BD0220FCE72F1B002000300840B9
:104C00000040084000366E0180969800014B1868FD
:104C1000704700BF281B0020014B1868704700BF79
:104C2000201B0020064B1B68C3F3C20203F00700E1
:104C300002B15043C3F3821303B15843704700BF1E
:104C400034300840034BD3F8380180F01000C0F333
:104C5000001070470040084061B1074BB3FBF1F30F
:104C6000984207D3054BB3FBF1F188428CBF00207B
:104C7000012070470020704700371789007DDAACAB
:104C80002DE9F047894614469A46DDE90886FFF784
:104C9000C9FF054601464846FFF7DEFF20B90E2151
:104CA000FEF750FE022033E0FCF742FA0746002DE3
:104CB000F8D00028F6D015F1FF3318BF0123CAF849
:104CC00000301E4B1B68C3F3130300EB5502B2FB0D
:104CD000F5F2A2FB0301C20C194B42EA41321A6001
:104CE000184BC3F800900A9B09FB05F11960164B9D
:104CF0001C60164B9F420DD1154B6C43A1FB030169
:104D0000A4FB03458A09AB09C8F8002033600020E2
:104D1000BDE8F0873A460023C804490B03F0A4F924
:104D2000C8F80000E004630BA0FB050105FB0311BC
:104D30003A46002303F098F93060E8E73030084045
:104D4000241B0020281B0020201B002000F049020B
:104D50000A3BB2DF07B501A9FFF7E2FE054B4FF4AE
:104D6000EE621A60019A03F100731A6003B05DF8F5
:104D700004FB00BF3040084407B5694601A8FFF7AF
:104D800089FE074B43F6FF521A6003F10073019A44
:104D90001A600098FFF7DEFF03B05DF804FB00BF68
:104DA000A440084438B50D4B05460C465868C0F37E
:104DB00003600428FAD00A28F8D0B0FA80F00F2156
:104DC0004009FEF7BFFD064B9D631CB103F5805300
:104DD00080229A60BDE83840FFF7CEBF004008400F
:104DE0000030084038B5124D4FF400222A60114AB5
:104DF0001060114A1268D2B1104B114C1B6F00F5B4
:104E0000F42000F59070B0FBF4F4033CE4B203F03E
:104E10000703A34202D02046FCF7A8F9094B1B78F0
:104E20002BB1094B4FF4702224041A602C6038BD5A
:104E300094400846400000208009C64300300E40E0
:104E400040420F002C1B00209440084430B5164B04
:104E50000446186887B000B10C3005AB0293134BC1
:104E60000193103B0093D4E9001204ABFFF708FF55
:104E70000546A0B9049A1023A2B10D4A13600D494A
:104E80000598FFF78DFEFFF777FF20680A4A0B4B66
:104E9000B0F1804F8CBF10461846FFF7A3FF28469D
:104EA00007B030BD064AE9E7D81800203C3008407A
:104EB0003841084650300840C0CF6A00E0673500EE
:104EC00038410844034B01221A70034B1868FFF75E
:104ED00089BF00BF2C1B002040000020034B002294
:104EE0001A70034B4FF400221A6070472C1B0020ED
:104EF00094400846014B40221A607047944008468F
:104F000070B50D4C0FCC86B001AD0FC5C022236823
:104F10000A482B60002103F058FE094B094A5A60E9
:104F2000094B1B782BB101AD0FCD034E0FC62B687B
:104F3000236006B070BD00BFD81F0021401F0021B4
:104F4000EC1F00213F003700ED1A002070470000E1
:104F5000F7B506460C46174D39B90A46072103F046
:104F600053F8C5E9004403B0F0BD134B07271F6099
:104F70000B792B7002A84B7940F8043D012103F016
:104F80005FF8019BC2B2D34000F00F0040EA03106B
:104F90006870A379AB70E379EB7023686B60237959
:104FA000064A0133936139463A46304603F02CF8FD
:104FB000D9E700BF381F0021040008440000084062
:104FC0002DE9F34BDDE90A67D0E92289044689EA35
:104FD000070188EA060001EA030C00EA020B8CEAEA
:104FE00009018BEA0800C4E9220122F0010006EA67
:104FF000000807EA030900251946CDE9005549F0E4
:10500000200348F0804202F03FF82378DB0720D5E8
:10501000D4E92223002003F0200150EA010318D034
:105020004FF480312046FEF737FC237865F3000308
:105030002370D4E9222302EA000503EA010655EAB7
:10504000060306D005492A4609683346A4F10C0038
:105050008847002002B0BDE8F08B00BF440000206C
:10506000034A0368002B08BF1346024A13607047C7
:105070004D4F00004400002031F00F0001BF054AF1
:10508000136801F00F0123F00F0306BF0B431360F9
:1050900001207047401F0021014B002059607047DC
:1050A000401F0021032811D8DFE800F00E02070A94
:1050B00000221146012002F0D5BB00220121F9E7B0
:1050C000012211461046F6E70022FAE77047000079
:1050D0000F4B5B68C3F30363013B0B2B0DD8DFE879
:1050E00003F014140614141414080A080808032002
:1050F00070470420704705207047064BDB6813F0AB
:10510000060F14BF0420012070470220704700BF23
:105110000040084000500840044BD3F8883013F09A
:10512000A00F0CBF01200020704700BF00400840C6
:105130007FB51546B0F84C202B792968012B1BD17F
:105140008A421ED8891A1A1C18BF01222C7B022CF5
:1051500019D00034AB6818BF0124AE7B003618BFED
:10516000012602966D7BB5FA85F56D09CDE90045FE
:1051700002F068F904B070BD022BE3D11A46002199
:10518000E4E70021DFE70023E7E700000138C0B2D1
:1051900002289CBF0F4B53F820200F4B4FF060515B
:1051A000196003F1007388BF00221A604FF40012E7
:1051B0001A600A4A136F23F0060343F004031367CF
:1051C000074B4FF0805119600423C2F8843000204F
:1051D000704700BF748E000018600844000008404B
:1051E00094400846114B1B7813B1114B06221A60EC
:1051F000104B0022C3F884200F4B4FF080521A60EE
:105200000E4BD3F8883013F4800F0D4B09D182690F
:1052100012F0800F18BF0B494FF4001214BF0A6040
:105220001A604FF060521A6000207047341B002053
:1052300070000844000008409440084400400840C2
:10524000186008441860084670B51446826982EAFE
:1052500004030B4053400646836108070D4606D5FC
:1052600014F0080F14BF444A444A08231360E907A6
:1052700006D514F0010F14BF3F4A404A01231360C2
:105280006A070CD502F09CF914F0040F14BF3C4AD5
:105290003C4A4FF4007313603B4B04221A60AB0787
:1052A00006D514F0020F14BF334A344A02231360A8
:1052B000E80606D514F0100F344B14BF00221B2251
:1052C000DA6429061FD522062DD5314B4FF4001282
:1052D0001A6003F17E43E03301221A60FBF724FFDA
:1052E0002C4B5B68C3F30363032B06D12A4A136874
:1052F00023F0F00343F0E0031360244B40F201225B
:105300005A62FBF749FF15F0600F2DD004F06004DE
:1053100004EA05014029204B28D0602914D0202917
:1053200027D1012219E01B4BD3F888305B02EAD465
:1053300096F84030194A4FF400111160002BE2D06A
:10534000174B01221A60DEE7F26A19463AB110687B
:10535000012804D9526942F001021A6101E00023D8
:105360000B610C4B80229A60002070BD40F201124C
:10537000F3E70022F1E700BF440008464400084478
:105380001C6008461C60084488400844000008402F
:105390001860084600400840401F0021186008447B
:1053A000F8600846014B9869FFF7D2BA00600840E0
:1053B000C36A53B11A68022A07D9586AC0F3072092
:1053C00030B11B6AB3FBF0F070470C38FEF786B8BB
:1053D00070470000014B9869FFF7E4BA006008408D
:1053E000C26A62B11368022B09D9536AC3F307205A
:1053F00040B1126ADBB25343B3FBF0F070470C3894
:10540000FEF770B870470000064BD3F830311B042C
:1054100001D4FFF7E5BF0A78034B0448012A18BFFF
:10542000184670470060084020A1070048E80100C6
:1054300010B5054A4B780C7810881B0643EA0443E4
:1054400003431360002010BDEC1E002105480368D3
:105450001A0C0B78120413434A7843EA02230360C0
:1054600000207047EC1E0021FFF7F0BA70B504462B
:1054700000F16406086860668B88A4F868308B8841
:10548000C4F8F430FF2323710846FEF7DBFD054620
:1054900070B93046FEF700FB054648B92046FEF7D6
:1054A000F1FC0121A4F8680004F13C0001F0E6FAE7
:1054B000284670BD38B5054690F8640003280C46B0
:1054C00013D0FF2913D0FEF771FBA04204D895F842
:1054D0006400FEF76BFB04462C712046FEF718FCB7
:1054E000A0F1FF035842584138BD0220FCE70120DB
:1054F000FAE710B590F86430032B044619D0E17038
:10550000836A93B190F86D308B4209D20023836295
:10551000FEF736F901462046BDE81040FEF7E0B838
:105520000022BDE81040FFF7C5BFFF2202711846F8
:1055300010BD0220FCE7F8B51C46154607460E468E
:10554000FFF770FB87F86C00A9896B682360761AF7
:105550002681FFF791F9AB6897F86C20000BC0EB40
:105560008040B0FBF2F0B3EBD01F88BF21682289E6
:1055700091BF636003FB02112160002188BF61605D
:105580003F2A08D9216890099B0100FB031302F010
:105590003F0223602281F8BD036A012B2DE91748E1
:1055A00004463ED049B101A904F17000FFF74EFC5A
:1055B00068B1022003B0BDE81088FFF727FB236F16
:1055C0009842F0D1FFF728FB636F9842EBD101219D
:1055D000B4F87800FFF7E6FB23781E4A6FF3000368
:1055E0002370A36A11685B694A1C1B6811D0581CA0
:1055F00011D12046FEF722FAD4E92223002003F03D
:10560000200150EA01030ED1237843F001032370F7
:1056100007E0591CF0D09A1C03D019462046FEF72B
:105620000DFA0020C6E74FF480312046FEF734F92A
:10563000D4E9222302EA000B03EA010C5BEA0C0323
:10564000EFD005495A4609686346A4F10C00884723
:10565000E7E700BF3C000020440000204FF48071C9
:1056600002F0E4BC4FF4807310B9024A1360704733
:10567000014AFBE7884008468840084437B50DF1E9
:1056800006020D4601F02EF8044688B185B12B784C
:1056900013F0F70F0CD0FBF747FD074BBDF80620C2
:1056A0001C60064B1A80064B6A881A80FBF774FD53
:1056B000204603B030BD00BF381B00203C1B00203B
:1056C000361B00202DE9F74306461546084619B952
:1056D000012003B0BDE8F083002AF9D0022905D8E3
:1056E0000022114600F0FEFF0028F1D003888278E6
:1056F0001C0402F0070177D4A1F1070C077990F898
:105700000580C488DCF1000040EB0C002873C2F374
:1057100000106873C2F380102874C2F3C000C2F393
:1057200040126874AA745FBB96F85E20013AEA746E
:10573000B269D20652D4063901294FD82B4A063B0A
:10574000D26C9BB206226946012000F01FFEE304E2
:105750009DF9007017D49DF801004400E0B2B36BCE
:105760000BB139469847E873AF736A7CDDF80210D5
:10577000304601F0F1FA012328602B720020A8E7DF
:10578000013FEF74D4E7F36AC4F30B04E4008BB178
:105790001A68022A0ED95B6A13F0FF0301D0B4FB2A
:1057A000F3F4A04516D8BCB1C8EB0828B8FBF4F454
:1057B000E443D3E73046FFF7FBFD05F111018146D5
:1057C0003046FFF721FE0028EBD009FB04F4B4FBC0
:1057D000F0F4E6E70020C2E72046C0E7002080237F
:1057E000EB812860287274E7022072E7000008400D
:1057F000F8B506461446177AFFF764FF054650B918
:10580000237A43B104F1110127723046FFF7FCFD02
:10581000214601F06DFA2846F8BDB3FA83F3192B3F
:10582000084610B5114610D0C3F11902D2B2062AAB
:1058300028BF0622931D01249C40A4B2A14228BF88
:10584000214600F021FD204610BD0022F2E7084667
:105850001188B1FA81F1192910B50DD0C1F11901E2
:10586000C9B2062928BF06218C1D0123A34013803D
:1058700000F026FD002010BD0021F5E7094B0121B5
:10588000D3F8EC20996203F18063243352074FF47C
:105890000051196041BF03F10073C83304221A603C
:1058A000704700BF0010084038B54B7805460C46DD
:1058B000C3B9FFF797FCA378C3B9114B40F6FF7249
:1058C0005A62E378B3B90E4B40F6FF725A6503F1A2
:1058D000C063A3F6BC7360221A600A4B40221A60B0
:1058E000002038BD1846FFF751FCE4E72846FFF7D3
:1058F000C5FFE6E7044B60221A60044BEEE700BFE9
:105900000010084088400844440008448840084685
:1059100038B50C4BD3F8EC5003F18063EC334FF403
:1059200080641C60084B0020186001F0DDFE074B0E
:105930004FF400521A606A0542BF03F100739833B6
:105940001C6038BD00100840381B0020541008446B
:10595000082310B1024A13607047024AFBE700BFF8
:10596000884008468840084410B50846144601217E
:10597000FEF790FF20460121FEF78CFF002010BDAE
:105980002DE9F047374F04468946FFF74BF93B684E
:105990008342804601D0FEF733FB334B3349DD6849
:1059A000334BE562D3F8842012F4E05F04BF202279
:1059B000C3F81022D1F8A0302E4AC3F3812313700C
:1059C000D1F8A4306189C3F3812353704FF6FF737C
:1059D000994204D0284B1B680BB120469847274EAC
:1059E000D4F82CA033689A4511D02046FFF7F8FC74
:1059F00000F086FFBAF1000F17D0DAF80030A3B13B
:105A0000DAF810308BB15A681B686264E36333685C
:105A1000AB420FD01A4B1B682BB14DB1296801B1B5
:105A2000A96820469847072505E000236364EDE751
:105A30002946F6E701252046FEF724FAB9F1000FC2
:105A400004D1294604F13C0001F018F8E36A336000
:105A50000C4BC7F8008006221A600B4B01221A700B
:105A6000BDE8F087481B0020EC1F00210000084023
:105A700000600840441B00204C1B0020401B0020FD
:105A8000301B002070000844341B002048220021F5
:105A9000014803F09AB800BFF01E00212DE9F04341
:105AA000894685B00446002858D0002343620393FA
:105AB000A36363654FF06413C4E9163323664FF4A0
:105AC0007F434FF6FF7200214FF0FF38E38100F172
:105AD0000C07234BA4F8EE200020C4E92501C4F8EC
